:100000000C9472000C9494000C9494000C94940042
:100010000C9494000C9494000C9494000C94940010
:100020000C9494000C9494000C9494000C94940000
:100030000C9494000C9494000C9494000C949400F0
:100040000C9494000C9494000C9494000C949400E0
:100050000C9494000C9494000C9494000C949400D0
:100060000C9494000C942C020C9494000C94E701D2
:100070000C9494000C9494000C9494000C949400B0
:100080000C9494000C9494000C9494000C949400A0
:100090000C9494000C9494000C9494000C94940090
:1000A0000C9494000C9494000C9494000C94940080
:1000B0000C9494000C9494000C9494000C94940070
:1000C0000C9494000C9494000C9494000C94940060
:1000D0000C9494000C9494000C9494000C94940050
:1000E0000C94940011241FBECFEFD1E2DEBFCDBF30
:1000F00000E00CBF12E0A0E0B2E0E0E9F1E100E0D6
:100100000BBF02C007900D92AC38B107D9F71BBEE8
:1001100013E0ACE8B2E001C01D92A332B107E1F7F1
:100120000E945B030C94C6080C94000084E090E0ED
:100130000E94DA0308950E9470040895FC018091E2
:100140008C0290918D02009739F4F0938D02E09328
:100150008C0213821282089593838283F0938D021E
:10016000E0938C020895E0918C02F0918D0230971B
:1001700031F490938D0280938C0208C0F9012281A2
:10018000338121153105D1F793838283FC011382DA
:1001900012820895CF93DF93FC0120918C0230915D
:1001A0008D022115310531F040815181D901C0E026
:1001B000D0E00FC090938D0280938C021382128244
:1001C0001DC012968D919C911397ED01009739F007
:1001D000DC018D919C9111978417950794F32097DA
:1001E00039F433832283F0938D02E0938C0206C0AE
:1001F0008A819B8193838283FB83EA83DF91CF9102
:1002000008950F931F93CF93DF938AE090E00E94AD
:10021000AA05C0918C02D0918D020BE312E013C0AD
:1002200000D00F92EDB7FEB71283018388819981C8
:10023000948383830E9498050A80DB81C02D0F90F0
:100240000F900F900F90209759F78AE090E00E944E
:10025000AA05DF91CF911F910F91089509C0FC016C
:100260002281338130938D0220938C020E9470048E
:1002700080918C0290918D02009789F70895EF92FA
:10028000FF921F93CF93DF93CDB7DEB728970FB6BA
:10029000F894DEBF0FBECDBF009719F0FC011081AE
:1002A00001C011E682E4E82E82E0F82E0F920F9250
:1002B000EDB7FEB7F282E1820E9498050F900F9091
:1002C00040911D0350911E03CE01019668E070E03D
:1002D0000E9464050097A1F00E9496002981FC010C
:1002E00020831182183619F0143739F403C00E94A4
:1002F0009E00DCCF0E94B300D9CF0E94CA00D6CFA7
:100300000E9401010E942E0128960FB6F894DEBFCC
:100310000FBECDBFDF91CF911F91FF90EF90089559
:10032000F8940E94210378948823D1F3843011F04B
:1003300090E008958FEF9FEF0895CF93C82F8A30F4
:1003400019F48DE00E949D01F89480919002882319
:1003500059F4C093C60081E0809390020AC078945B
:1003600086EF8A95F1F7F8948C2F0E94FF02009790
:10037000B1F3789481E090E0CF91089589E692E01E
:1003800090931E0380931D0387E792E090932003D0
:1003900080931F030E94CC02109290021092C5001D
:1003A00087E08093C400E0ECF0E08081826080838D
:1003B000E1ECF0E0808188608083808180648083CC
:1003C00080818061808380818068808308951F920E
:1003D0000F920FB60F920BB60F9211242F933F93EB
:1003E0004F935F936F937F938F939F93AF93BF933D
:1003F000EF93FF930E943E03882319F4109290021A
:1004000002C08093C600FF91EF91BF91AF919F9181
:100410008F917F916F915F914F913F912F910F90AD
:100420000BBE0F900FBE0F901F901895CF93C82F43
:100430008A3019F48DE00E94160280919002882380
:1004400031F4C093C60081E08093900203C08C2FEA
:100450000E94FF02CF9108951F920F920FB60F9244
:100460000BB60F9211242F933F934F935F936F938B
:100470007F938F939F93AF93BF93CF93EF93FF930C
:10048000C091C600C43031F0CD3009F4CAE08C2FE1
:100490000E9416028C2F0E94DD02FF91EF91CF91F6
:1004A000BF91AF919F918F917F916F915F914F918C
:1004B0003F912F910F900BBE0F900FBE0F901F908A
:1004C0001895CF93DF93FC0162E070E00E94B303C4
:1004D000EB0122E030E008C0CF01B9010E94B30374
:1004E000009741F02F5F3F4FC217D307ACF781E071
:1004F00090E002C080E090E0DF91CF910895CF922C
:10050000DF92EF92FF920F931F93CF93DF930097A9
:1005100021F00E9409057C0104C090EDE92E97E0CE
:10052000F92EC2E0D0E000E010E085E4C82E82E0C1
:10053000D82E16C0CE010E946102009781F00F5F95
:100540001F4F00D00F92EDB7FEB7D282C182D48385
:10055000C3830E9498050F900F900F900F902196E3
:10056000EC16FD063CF700D00F928FE592E0EDB758
:10057000FEB792838183148303830E9498050F90B2
:100580000F900F900F90DF91CF911F910F91FF90DF
:10059000EF90DF90CF9008951092D6021092D5027E
:1005A0001092D4021092D3021092D8021092D70265
:1005B00010929202109291020895482F2091D70232
:1005C0003091D8022F5F3F4FC90160E470E00E9474
:1005D000B3039C01809191029091920228173907F0
:1005E00059F03093D8022093D70227523D4FF9019A
:1005F000408381E090E0089580E090E00895482FE6
:100600002091D5023091D6022F5F3F4FC90160E49F
:1006100070E00E94B3039C018091D3029091D402B8
:100620002817390759F03093D6022093D5022D565A
:100630003D4FF901408381E090E0089580E090E033
:10064000089580919102909192022091D702309169
:10065000D8022817390779F0019660E470E00E940B
:10066000B303909392028093910287529D4FFC01B5
:10067000808190E0089580E090E008958091D30219
:100680009091D4022091D5023091D60228173907D3
:1006900079F0019660E470E00E94B3039093D40275
:1006A0008093D3028D569D4FFC01808190E0089588
:1006B00080E090E00895CF93DF93CDB7DEB7C058C8
:1006C000D0400FB6F894DEBF0FBECDBF0E94BE0172
:1006D000789480E0C82E82E0D82E0F920F92EDB76A
:1006E000FEB7D282C1820E9498050F900F90409170
:1006F0001D0350911E03CE01019660E870E00E9438
:100700006405009759F1CE01019663E072E00E9402
:1007100027058C01009709F380E090E063E072E028
:100720000E9427057C01C80168E072E00E942C0548
:10073000009721F4C7010E947F02CFCFC8016EE06D
:1007400072E00E942C05009721F4C7010E943F012E
:10075000C4CF83E192E00E94B105BFCF86E292E070
:100760000E94B105FFCF97FB092E07260AD077FD1F
:1007700004D00CD006D000201AF4709561957F4FFC
:100780000895F6F7909581959F4F0895AA1BBB1B7E
:1007900051E107C0AA1FBB1FA617B70710F0A61B81
:1007A000B70B881F991F5A95A9F780959095BC01A2
:1007B000CD010895CF93DF93AC018230910510F401
:1007C00042E050E0E0911B03F0911C0320E030E098
:1007D000A0E0B0E024C08081918184179507D0F01B
:1007E0008417950771F482819381109729F01396ED
:1007F0009C938E9312972CC090931C0380931B03A1
:1008000027C02115310519F08217930718F49C01B0
:10081000BD01EF0192818381DF01E92FF82F30972D
:10082000D1F621153105F9F0C901841B950B8430EF
:10083000910580F48A819B816115710521F0FB018E
:100840009383828304C090931C0380931B03FE0157
:10085000329642C0FE01E80FF91F4193519302976F
:100860009983888339C08091190390911A03009766
:1008700041F4809187029091880290931A038093AB
:10088000190320918502309186022115310541F42A
:100890002DB73EB78091890290918A02281B390BAF
:1008A000E0911903F0911A03E217F30798F42E1B55
:1008B0003F0B2417350770F0CA0102962817390735
:1008C00048F08E0F9F1F90931A0380931903419352
:1008D000519302C0E0E0F0E0CF01DF91CF910895A5
:1008E0000F931F93CF93DF939C01009709F48CC063
:1008F000DC01129713961C921E92129760911B03B3
:1009000070911C036115710589F48D919C9111976B
:10091000820F931F2091190330911A03281739076A
:1009200069F5B0931A03A09319036EC0FB0140E070
:1009300050E001C0FC01EA17FB0730F4828193818B
:10094000AF010097B9F71FC0E9012297FB83EA8343
:1009500008811981C901800F911F8E179F0759F4D3
:1009600080819181800F911F029699838883828173
:1009700093819B838A834115510529F4B0931C030D
:10098000A0931B0341C0FA01B383A283C191D1910B
:10099000EC0FFD1FAE17BF0781F4F9019291829110
:1009A0008C0F9D1F0296DA0111969C938E93828183
:1009B000938113969C938E931297E0E0F0E002C02F
:1009C000FB01BC01DB0112968D919C91139700975E
:1009D000B9F7CB0102962D913C911197820F931F8D
:1009E0002091190330911A032817390769F43097B9
:1009F00029F410921C0310921B0302C0138212826E
:100A000070931A0360931903DF91CF911F910F9197
:100A10000895FC0188279927E89421912032E9F371
:100A2000293010F02E30C8F32B3241F02D3239F43A
:100A3000689404C00E945C05820F911D219120538F
:100A40002A30C0F31EF4909581959F4F08954EE88B
:100A500052E00E9435050895FB01DC018D91019063
:100A600080190110D9F3990B0895FA01A191B08171
:100A7000009719F41097E1F0CD01DC01CD010D9044
:100A8000002011F4C00113C0FB012191222319F0B1
:100A90002015D9F7F3CFFB012191201519F41E92EF
:100AA000119606C02223C1F70D900020A1F7D001B6
:100AB000FA01A193B08308957AE0979F902D879FC4
:100AC000802D910D11240895CF92DF92EF92FF9225
:100AD0000F931F93CF93DF938C016A01FA018381F7
:100AE00080FF1AC016161706BCF47B01E8010EC081
:100AF000C6010E94FC07FFEF8F3F9F0769F08993B3
:100B00000894E108F1088A30910521F021E0E2160D
:100B1000F10471F7188202C000E010E0C801DF9113
:100B2000CF911F910F91FF90EF90DF90CF9008959C
:100B3000CF93DF93CDB7DEB7FE0136966191719109
:100B400080911F0390912003AF010E94DF05DF9188
:100B5000CF91089560911F03709120030E943C087B
:100B600008950F931F93CF93DF938C01E0911F03A0
:100B7000F0912003838181FF1AC0C0E0D0E005C05E
:100B80001995009711F0CFEFDFEFF80181918F01F8
:100B900060911F0370912003DB011896ED91FC9189
:100BA0001997882369F78AE01995009711F0CFEF1C
:100BB000DFEFCE01DF91CF911F910F9108952F921A
:100BC0003F924F925F926F927F928F929F92AF92DD
:100BD000BF92CF92DF92EF92FF920F931F93CF932A
:100BE000DF93CDB7DEB72D970FB6F894DEBF0FBEFB
:100BF000CDBF3C017D876C875A01FC0117821682AC
:100C0000838181FFC8C12E010894411C511CF3014E
:100C10009381EC85FD8593FD859193FF8191FD87FF
:100C2000EC87882309F4B3C1853241F493FD8591A3
:100C300093FF8191FD87EC87853229F490E0B30121
:100C40000E943C08E4CFFF24EE2410E01032B0F400
:100C50008B3269F08C3228F4803251F0833271F497
:100C60000BC08D3239F0803349F411602CC0126012
:100C7000146029C0186027C0106125C017FD2EC060
:100C8000282F20532A3098F416FF08C08F2D880F84
:100C9000F82EFF0CFF0CF80EF20E15C08E2D880FEB
:100CA000E82EEE0CEE0CE80EE20E10620CC08E3256
:100CB00021F416FD6CC1106406C08C3611F4106866
:100CC00002C0883659F4EC85FD8593FD859193FF2C
:100CD0008191FD87EC87882309F0B8CF982F955430
:100CE000933018F09052933038F424E030E0A20EA4
:100CF000B31E3FE339830FC0833631F0833781F071
:100D0000833509F05AC022C0F5018081898322E031
:100D100030E0A20EB31E21E0C22ED12C420114C03D
:100D200092E0292E312C2A0C3B1CF5018080918009
:100D300016FF03C06F2D70E002C06FEF7FEFC4019C
:100D40000E94F1076C0151011F7715C082E0282E27
:100D5000312C2A0C3B1CF5018080918016FF03C0CA
:100D60006F2D70E002C06FEF7FEFC4010E94E607B5
:100D70006C011068510113FD1CC006C080E290E0B8
:100D8000B3010E943C08EA948E2D90E0C816D90663
:100D9000A8F30FC0F40117FD859117FF81914F0152
:100DA00090E0B3010E943C08E110EA940894C10865
:100DB000D108C114D10471F7E7C0843611F0893627
:100DC00051F5F50117FF07C080819181A281B381A0
:100DD00024E030E008C080819181AA2797FDA0958A
:100DE000BA2F22E030E0A20EB31E012F0F76B7FF1C
:100DF00008C0B095A095909581959F4FAF4FBF4F7C
:100E00000068BC01CD01A2012AE030E00E94680820
:100E1000D82ED4183FC0853721F41F7E2AE030E059
:100E200020C0197F8F36A9F0803720F4883509F06B
:100E3000AEC00BC0803721F0883709F0A8C001C0D0
:100E4000106114FF09C0146007C014FF08C01660C9
:100E500006C028E030E005C020E130E002C020E11B
:100E600032E0F50117FF07C06081718182819381B3
:100E700044E050E006C06081718180E090E042E093
:100E800050E0A40EB51EA2010E946808D82ED41806
:100E9000012F0F7706FF09C00E7FDF1430F404FF27
:100EA00006C002FD04C00F7E02C01D2D01C01F2D13
:100EB000802F90E004FF0CC0FE01ED0DF11D20819C
:100EC000203311F4097E09C002FF06C01E5F05C071
:100ED00086789070009709F01F5F802E992403FD9B
:100EE00012C000FF0DC0FD2C1E1550F4FE0CF11AAF
:100EF0001E2D06C080E290E0B3010E943C081F5FF7
:100F00001E15C0F304C01E1510F4E11A01C0EE2432
:100F100084FE0FC080E390E0B3010E943C0882FE93
:100F20001FC081FE03C088E590E010C088E790E014
:100F30000DC0C40186789070009791F081FC02C0CA
:100F400080E201C08BE207FD8DE290E0B3010E94D8
:100F50003C0806C080E390E0B3010E943C08FA948C
:100F6000DF14C0F3DA94F201ED0DF11D808190E001
:100F7000B3010E943C08DD20A9F706C080E290E0A2
:100F8000B3010E943C08EA94EE20C1F740CEF30181
:100F90008681978102C08FEF9FEF2D960FB6F89450
:100FA000DEBF0FBECDBFDF91CF911F910F91FF909C
:100FB000EF90DF90CF90BF90AF909F908F907F90F9
:100FC0006F905F904F903F902F900895FC01059097
:100FD000615070400110D8F7809590958E0F9F1F3B
:100FE0000895FC016150704001900110D8F7809580
:100FF00090958E0F9F1F0895CF93DF93EC012B8167
:1010000020FF35C026FF09C02F7B2B838E819F8157
:1010100001969F838E838A8128C022FF0FC0E881BA
:10102000F9818081992787FD9095009719F42062B6
:101030002B831DC03196F983E88311C0EA85FB85B7
:10104000CE01199597FF0BC02B813FEF8F3F930780
:1010500011F480E101C080E2822B8B8308C02E81D5
:101060003F812F5F3F4F3F832E8390E002C08FEF81
:101070009FEFDF91CF9108950F931F93CF93DF934D
:101080008C01EB018B8181FF1BC082FF0DC02E8183
:101090003F818C819D812817390764F4E881F981AB
:1010A0000193F983E88306C0E885F985802F1995B7
:1010B000009731F48E819F8101969F838E8302C0B9
:1010C0000FEF1FEFC801DF91CF911F910F9108958E
:1010D000FA01AA27283051F1203181F1E8946F9369
:1010E0006E7F6E5F7F4F8F4F9F4FAF4FB1E03ED00F
:1010F000B4E03CD0670F781F891F9A1FA11D680FAD
:10110000791F8A1F911DA11D6A0F711D811D911DDF
:10111000A11D20D009F468943F912AE0269F112454
:101120003019305D3193DEF6CF010895462F4770B8
:10113000405D4193B3E00FD0C9F7F6CF462F4F7013
:10114000405D4A3318F0495D31FD4052419302D071
:10115000A9F7EACFB4E0A695979587957795679517
:10116000BA95C9F700976105710508959B01AC0117
:101170000A2E06945795479537952795BA95C9F73E
:10118000620F731F841F951FA01D0895F894FFCF51
:101190002420000A0D0920007072696D65006C69D9
:1011A000737400556E6B6E6F776E20636F6D6D613B
:1011B0006E642E2E2E006C6F676F75742C20676F17
:1011C0006F642062796520212121002D2D3E256349
:1011D00020003E2000256420697320612070726920
:1011E0006D65206E756D626572202121210A006394
:1011F0006F756E743D25640A000000000100000058
:101200000000009001000000000002000000009DAE
:0C1210000100000000000023032000008B
:00000001FF
